:100000000C94061C0C94371C0C94371C0C94371C55
:100010000C94371C0C94371C0C94371C0C94371C14
:100020000C94371C0C94371C0C94371C0C94371C04
:100030000C94371C0D94751D0C94371C0C94371CB4
:100040000C94371C0C9401C10C94371C0C94371C75
:100050000C94371C0C94371C0C94C3BA0D94E31FFA
:100060000C94371C0C94D99A0C94CF9A0C94371C8E
:100070000C94371C0C94371C0C94371C0C94371CB4
:100080000C944E790C94371C0C94371C0C94371C30
:100090000C94371C0C94371C0C94371C0C94371C94
:1000A0000C94371C0C94371C0C9420790C94371C3E
:1000B0000C94371C0C94371C0C94371C0C94F2785D
:1000C0000C94371C0C94371C0C94371C0C94371C64
:1000D0000C94371C0C94371C0C94371C0C94371C54
:1000E0000C94371C084AD73B3BCE016E84BCBFFD45
:1000F000C12F3D6C74319ABD56833DDA3D00C77FF8
:1001000011BED9E4BB4C3E916BAAAABE0000008090
:100110003F05A84CCDB2D44EB93836A9020C50B91F
:10012000918688083CA6AAAA2ABE000000803F004B
:100130000D94B81E0D94DE1E0D94D41E0D94921EC7
:100140000D949C1E0D94CA1E0D940B1F0D94F71E4A
:100150000D94851E0D94151F0D94EA310D941F1FEB
:100160000D948D1E0D94ED1E0D94A61E0D94011F71
:100170000D94A9390D94B01E0D94C01E4E414E49E8
:100180004E495459494E46CDCCCC3D0AD7233C1755
:10019000B7D13877CC2B329595E6241FB14F0A00A2
:1001A0000020410000C84200401C4620BCBE4CCA92
:1001B0001B0E5AAEC59D7400407A10F35A00A0720F
:1001C0004E18090010A5D4E80000E8764817000092
:1001D000E40B54020000CA9A3B000000E1F5050060
:1001E0000080969800000040420F000000A08601A9
:1001F000000000102700000000E803000000006479
:1002000000000000000A00000000000100000000E3
:10021000002C76D888DC674F0823DFC1DFAE59E1B8
:10022000B1B796E5E3E453C63AE651997696E8E627
:10023000C28426EB898C9B62ED407C6FFCEFBC9CFA
:100240009F40F2BAA56FA5F490055A2AF75C936B0C
:100250006CF9676DC11BFCE0E40D47FEF520E6B5C7
:1002600000D0ED902E0300943577050080841E08A1
:100270000000204E0A000000C80C333333330F98BF
:100280006E12831141EF8D2114893BE65516CFFE86
:10029000E6DB18D1844B381BF77C1D901DA4BBE412
:1002A00024203284725E228100C9F124ECA1E53D54
:1002B00027554E4C4F41442046494C414D454E54E4
:1002C000004C4F41442046494C414D454E54004658
:1002D000494C414D454E54204348414E474500440A
:1002E0006966663A200046726F6D5374703A005327
:1002F0007465707065723A00556E4C6576656C3A3F
:10030000004C6576656C65643A005261773A20204E
:100310002020000A4C6F676963616C3A00436F7577
:100320006E7420453A004361703A0042616279730D
:10033000746570205A0050726F6265204F66667354
:100340006574205A0050726F6265204F666673654F
:10035000745A3A2000290A0020746F20003F5A2066
:100360006F7574206F662072616E676520280029A2
:100370000A0020746F20003F59206F7574206F664B
:100380002072616E676520282D00290A0020746F95
:1003900020003F58206F7574206F662072616E6771
:1003A0006520282D0050726F6265204F6666736568
:1003B00074205800220A00656E7175657565696E56
:1003C000672022002042002050006F6B00526573AE
:1003D000656E643A200023646566696E6520444555
:1003E0004641554C545F004B6420004B6920004B44
:1003F000702000504944204175746F74756E6520FB
:1004000066696E697368656421205075742074682C
:1004100065206C617374204B702C204B6920616ED9
:1004200064204B6420636F6E7374616E7473206616
:10043000726F6D2062656C6F7720696E746F2043F8
:100440006F6E66696775726174696F6E2E680A00F7
:10045000504944204175746F74756E6520666169FA
:100460006C6564212074696D656F75740A0050496C
:1004700044204175746F74756E65206661696C65A2
:1004800064212054656D70657261747572652074A5
:100490006F6F20686967680A00204B643A2000206B
:1004A0004B693A2000204B703A20000A20436C61CF
:1004B0007373696320504944200A002054753A2020
:1004C00000204B753A2000206D61783A2000206DA5
:1004D000696E3A200020643A200020626961733A14
:1004E0002000504944204175746F74756E65207307
:1004F000746172740A00504944204175746F7475B8
:100500006E65206661696C6564212054656D706557
:1005100072617475726520746F6F20686967680A0C
:1005200000504944204175746F74756E6520666192
:10053000696C656421204261642065787472756419
:100540006572206E756D6265720A004572723A209E
:100550007574663820666F6E74206E6F7420696ED5
:10056000697469616C697A65642E004572723A201B
:100570007574663820666F6E74206E6F7420696EB5
:10058000697469616C697A65642E004572723A20FB
:100590007574663820666F6E74206E6F7420696E95
:1005A000697469616C697A65642E0050726F626566
:1005B000205A204F6666736574004C6F6164206D2D
:1005C0006D00556E6C6F6164206D6D0046696C2E18
:1005D000204469612E004520696E206D6DC2B30014
:1005E000416476616E6365204B002008204661639C
:1005F00074002008204D6178002008204D696E00AD
:100600004F6666004F6E004175746F74656D7000C3
:100610005654726176204D696E00566D696E0056B3
:100620006D6178204500566D6178205A00566D61E5
:1006300078205900566D6178205800416D6178200E
:100640004500416D6178205A00416D617820590064
:10065000416D6178205800412D54726176656C00BF
:10066000412D5265747261637400416363656C006F
:100670004A756E6374696F6E204465760050726FC0
:100680006265205A204F66667365740050726F620F
:10069000652059204F66667365740050726F6265FD
:1006A0002058204F666673657400457374657073D7
:1006B0002F6D6D005A73746570732F6D6D005973D3
:1006C000746570732F6D6D005873746570732F6D42
:1006D0006D00416476616E6365642053657474696E
:1006E0006E6773003F0043616E63656C00496E691D
:1006F00074004D34323800496E697469616C697AEE
:100700006520454550524F4D0046696C616D656EE0
:10071000740054656D706572617475726500537410
:100720006570732F6D6D0050726F6265204F666645
:1007300073657473004A65726B00416363656C6531
:10074000726174696F6E0056656C6F6369747900CD
:1007500053657420486F6D65204F666673657473CA
:1007600000436F6E66696775726174696F6E003FF2
:10077000004E65787420436F726E657200446F6E30
:1007800065004E65787400486F6D696E6720585932
:100790005A0053746F72652053657474696E677381
:1007A000004C6F61642053657474696E6773004C0C
:1007B0006576656C20436F726E6572730050726F60
:1007C0006265205A204F66667365740046616465F1
:1007D00020486569676874004F6666004F6E004286
:1007E0006564204C6576656C696E67004732380A2F
:1007F00047323900473239004C6576656C204265D6
:1008000064004175746F20486F6D65004D6F7469A9
:100810006F6E00436D643A2053746F7700436D64CC
:100820003A204465706C6F7900436D643A205357E9
:100830002D4D6F646500436D643A2053656C662DE1
:100840005465737400436D643A2052657365740097
:10085000426564004E6F7A7A6C650046616E205383
:100860007065656400436F6E66696775726174696F
:100870006F6E004C6F61642053657474696E6773AA
:1008800000526573746F72652044656661756C749F
:10089000730053746F72652053657474696E677367
:1008A0000050726568656174205045544720436F5D
:1008B0006E66005072656865617420504C4120433B
:1008C0006F6E66004F6666004F6E0052756E6F75F4
:1008D000742053656E736F7200424C546F75636879
:1008E0000050726F6265205A204F6666736574000F
:1008F000416476616E6365642053657474696E67E4
:1009000073004D61696E004D37303220542564000C
:100910004D36303020423020542564004D3730327F
:10092000203B2564004D3730312054256400436F4F
:100930006E74696E7565004F6666004F6E00527585
:100940006E6F75742053656E736F720050757267A9
:1009500065206D6F726500524553554D45204F50CF
:1009600054494F4E533A005052494E54205041552D
:100970005345440020204E6F7A7A6C653A2000502F
:1009800061726B696E672E2E2E00000057616974CC
:1009900020666F720066696C616D656E74206368B5
:1009A000616E676500746F207374617274005761C3
:1009B000697420666F720066696C616D656E742083
:1009C000756E6C6F616400004E6F7A7A6C6520689A
:1009D000656174696E6700506C656173652077614D
:1009E00069742E2E2E000050726573732062757428
:1009F000746F6E00746F2068656174206E6F7A7A10
:100A00006C650000496E736572742066696C616D77
:100A1000656E7400616E6420707265737320627518
:100A200074746F6E00746F20636F6E74696E756599
:100A3000005761697420666F720066696C616D654C
:100A40006E74206C6F616400005072657373204295
:100A50007574746F6E00746F20726573756D6520A8
:100A60007072696E7400005761697420666F72203D
:100A70007072696E7400746F20726573756D652E87
:100A80002E2E00005761697420666F720066696CD3
:100A9000616D656E7420707572676500003132306B
:100AA000003A200035003A20004245443A45504380
:100AB0004F53203130304B0052756E617761792091
:100AC00057617463683A204F4E004D617820546539
:100AD0006D7000323530003A20004D696E2054654B
:100AE0006D700035003A200045313A204550434FA3
:100AF00053203130304B005053550047656E6572BE
:100B00006963003A200050726F746F636F6C00313C
:100B10002E30003A200042617564003131353230A8
:100B200030003A2000437265616C69747933442067
:100B300052414D50530042696C696E656172204CA0
:100B40006576656C696E6700457874727564657268
:100B5000730031003A2000687474703A2F2F6D6171
:100B6000726C696E66772E6F72670043522D31305A
:100B700020563200323032302D30332D33310032B6
:100B80002E302E352E33004D61726C696E00546824
:100B900065726D6973746F727300426F6172642065
:100BA000496E666F005072696E74657220496E6698
:100BB0006F004D61696E003F004261636B005374CA
:100BC0006F70004368616E67652046696C616D6592
:100BD0006E7400507265686561742050455447001A
:100BE0005072656865617420504C410050726568B0
:100BF00065617420437573746F6D004261636B00AF
:100C00005072696E742066726F6D204D6564696103
:100C1000004D3231004368616E6765204D6564693F
:100C2000610041626F7574205072696E7465720064
:100C30004D363030204230004368616E6765204693
:100C4000696C616D656E7400436F6E66696775727D
:100C50006174696F6E0054656D7065726174757250
:100C600065004D6F74696F6E00526573756D652018
:100C70005072696E74004E6F204D65646961005456
:100C8000756E650053746F70205072696E740050F9
:100C900061757365205072696E7400496E666F20CD
:100CA00053637265656E003F005374617274205027
:100CB00072696E740043616E63656C005072696E98
:100CC000740043616E6E6F7420656E74657220737C
:100CD00075626469723A2000022E2E004D61696EC1
:100CE000004D6F74696F6E004D3834004469736154
:100CF000626C652053746570706572730042656440
:100D0000204C6576656C696E670047323800417526
:100D1000746F20486F6D65004D61696E005072659B
:100D20006865617420504C412042656400507265D2
:100D30006865617420504C4120456E6400507265B6
:100D400068656174205045544720456E64005072B8
:100D500065686561742050455447204265640054BD
:100D6000656D706572617475726500436F6F6C6458
:100D70006F776E0050726568656174205045544706
:100D8000005072656865617420504C410046616E88
:100D9000205370656564207E00426564004E6F7A62
:100DA0007A6C65004D61696E0050726F6265205A01
:100DB000204F666673657400416476616E636520DA
:100DC0004B00466C6F770046616E2053706565641A
:100DD000207E00426564004E6F7A7A6C6500537025
:100DE000656564004D61696E00000C0D00FE070230
:100DF0002603BC017FFE08FE08FE05080806000069
:100E000040F0C88888987810050808060000C0F8E7
:100E10008888888888F80505050600012030F830A4
:100E2000200508080600002070F820202020E0059A
:100E300009090600FF2070A8A8B888887020050658
:100E400006060001E08CEA8C8A0A0509090600FF03
:100E5000F8A88888888888A8F8050A0A0600FE206D
:100E60005050505088A8A888700303030600034020
:100E7000A040FFFFFFFFFFFFFFFFFFFFFFFFFFFFA0
:100E8000FFFFFFFFFFFFFFFF0000000605FF010758
:100E90000706020080808080800080030303060133
:100EA00005A0A0A005060606000050F85050F85016
:100EB0000509090600FF2070A8A07028A870200569
:100EC0000707060000C8C8102040989805070706C5
:100ED000000040A0A040A89068010303060205801E
:100EE00080800309090601FF204040808080404047
:100EF000200309090601FF80404020202040408057
:100F000005070706000020A8702070A82005050529
:100F10000600012020F820200203030601FFC04044
:100F200080050101060003F8020202060100C0C0AC
:100F3000050707060000081010204040800507073D
:100F4000060000708898A8C888700307070601008B
:100F500040C040404040E005070706000070880898
:100F6000102040F8050707060000F8081030088830
:100F70007005070706000010305090F810100507A4
:100F800007060000F880F0080888700507070600CB
:100F900000304080F0888870050707060000F808D8
:100FA0001010202020050707060000708888708830
:100FB00088700507070600007088887808106002AE
:100FC0000505060100C0C000C0C00206060601FFFC
:100FD000C0C000C0408003050506010120408040DC
:100FE00020050303060002F800F8030505060101C9
:100FF00080402040800507070600007088102020F0
:1010000000200507070600007088B8A8B8807005A2
:101010000707060000708888F88888880507070693
:101020000000F04848704848F005070706000070C7
:10103000888080808870050707060000F0484848CF
:101040004848F0050707060000F88080F08080F827
:10105000050707060000F88080F0808080050707FC
:1010600006000070888080988870050707060000D9
:10107000888888F8888888030707060100E04040D0
:10108000404040E00507070600003810101010909F
:10109000600507070600008890A0C0A0908805079B
:1010A00007060000808080808080F8050707060022
:1010B0000088D8A8888888880507070600008888DF
:1010C000C8A898888805070706000070888888885F
:1010D0008870050707060000F08888F0808080058A
:1010E000070706000070888888A89068050707062B
:1010F0000000F08888F0A0908805070706000070BF
:10110000888070088870050707060000F8202020F6
:1011100020202005070706000088888888888870B6
:1011200005070706000088888888505020050707B3
:1011300006000088888888A8A850050707060000D0
:101140008888502050888805070706000088885046
:1011500020202020050707060000F8081020408006
:10116000F80309090601FFE080808080808080E02C
:1011700005070706000080404020101008030909F9
:101180000601FFE020202020202020E005030306A8
:1011900000052050880501010600FEF80303030640
:1011A0000105804020050505060000700878887854
:1011B0000507070600008080F0888888F00505058F
:1011C0000600007080808870050707060000080888
:1011D00078888888780505050600007088F080709A
:1011E000050707060000304840E04040400507077B
:1011F0000600FE70888888780870050707060000DA
:101200008080F0888888880307070601004000C0B6
:10121000404040E00409090601FE100030101010A3
:1012200010906005070706000080808890E0908895
:10123000030707060100C04040404040E0050505A7
:10124000060000D0A8A8A8A8050505060000B0C89B
:10125000888888050505060000708888887005075D
:10126000070600FEF0888888F080800507070600E2
:10127000FE78888888780808050505060000B0C84B
:1012800080808005050506000078807008F005075D
:10129000070600002020F82020201805050506007C
:1012A00000888888986805050506000088888850A9
:1012B000200505050600008888A8A8500505050634
:1012C000000088502050880507070600FE8888889F
:1012D00050204080050505060000F8102040F80366
:1012E00009090601FF20404040804040402001099C
:1012F000090602FF80808080808080808003090949
:101300000601FF8040404020404040800503030626
:10131000000248A890FF434F4D4D554E494341545C
:10132000494F4E0044525952554E004552524F5269
:101330005300494E464F004543484F004572726F77
:10134000722077726974696E6720746F204545500A
:10135000524F4D210A00363726033C3D380E2E30C1
:101360003E131A1C1808440AFF43080907000162CB
:101370007573793A2070617573656420666F7220A9
:10138000696E7075740A00627573793A20706175C0
:1013900073656420666F7220757365720A006275EA
:1013A00073793A2070726F63657373696E670A00B0
:1013B0004D3630300053544F505045442E2000508D
:1013C00072696E7465722073746F707065642064E6
:1013D000756520746F206572726F72732E20466976
:1013E0007820746865206572726F7220616E642067
:1013F000757365204D39393920746F2072657374A7
:101400006172742E202854656D70657261747572F6
:10141000652069732072657365742E20536574208E
:101420006974206166746572207265737461727488
:10143000696E67290A004E6F20436865636B737598
:101440006D2077697468206C696E65206E756D62B9
:1014500065722C204C617374204C696E653A2000D3
:101460004E6F20436865636B73756D207769746890
:10147000206C696E65206E756D6265722C204C6102
:101480007374204C696E653A2000636865636B7302
:10149000756D206D69736D617463682C204C617388
:1014A00074204C696E653A20004C696E65204E755B
:1014B0006D626572206973206E6F74204C61737465
:1014C000204C696E65204E756D6265722B312C2043
:1014D0004C617374204C696E653A20004D31313097
:1014E0000053442072656164206572726F720A0055
:1014F0002121204B494C4C20636175736564206247
:1015000079204B494C4C20627574746F6E2F706952
:101510006E0A002121204B494C4C20636175736594
:101520006420627920746F6F206D75636820696E26
:101530006163746976652074696D65202D2063751B
:101540007272656E7420636F6D6D616E643A200017
:10155000506C656173652052657365740050524923
:101560004E5445522048414C5445440025533A209E
:101570002553004B494C4C45442E20005072696E57
:101580007465722068616C7465642E206B696C6C84
:1015900028292063616C6C6564210A0053544F5004
:1015A0005045442E20005072696E74657220737429
:1015B0006F707065642064756520746F2065727249
:1015C0006F72732E20466978207468652065727288
:1015D0006F7220616E6420757365204D3939392032
:1015E000746F20726573746172742E202854656D57
:1015F00070657261747572652069732072657365B8
:10160000742E20536574206974206166746572209D
:1016100072657374617274696E67290A0065636824
:101620006F3A004572726F723A0042696C696E657A
:101630006172204C6576656C696E672047726964DB
:101640003A0A0021212053544F502063616C6C658D
:10165000642062656361757365206F6620424C5437
:101660006F756368206572726F72202D20726573CA
:10167000746172742077697468204D3939390A00B1
:1016800021212053544F502063616C6C65642062AB
:10169000656361757365206F6620424C546F756396
:1016A00068206572726F72202D207265737461728A
:1016B000742077697468204D3939390A00486F748D
:1016C000656E6420746F6F20636F6C640A005365ED
:1016D0006E64204D31303820746F20726573756DE3
:1016E000650A00496E736572742066696C616D6588
:1016F0006E7420616E642073656E64204D313038E5
:101700000A0053656E64204D31303820746F2068B4
:10171000656174206E6F7A7A6C650A00496E736534
:1017200072742066696C616D656E7420616E6420F0
:1017300073656E64204D3130380A004732362043DD
:10174000616E63656C65640047323620486561747C
:10175000696E67204E6F7A7A6C6500473236204892
:10176000656174696E6720426564005761697469D8
:101770006E6720666F72206865617475702E0A004E
:101780004669786564204C656E677468205072699C
:101790006D6500446F6E65205072696D696E6700FB
:1017A0004D616E75616C207072696D696E672E2E69
:1017B0002E004C656176696E6720473236003F53D4
:1017C000706563696669656420582C5920636F6F82
:1017D0007264696E617465206F7574206F66206233
:1017E0006F756E64732E0A003F285229657065611B
:1017F000742076616C7565206E6F7420706C6175F5
:101800007369626C653B206D75737420626520613D
:1018100074206C6561737420312E0A003F5370652B
:10182000636966696564206E6F7A7A6C6520746599
:101830006D7065726174757265206E6F7420706C66
:1018400061757369626C652E0A003F537065636948
:10185000666965642066696C616D656E7420736984
:101860007A65206E6F7420706C61757369626C6547
:101870002E0A003F53706563696669656420707263
:10188000696D65206C656E677468206E6F7420707A
:101890006C61757369626C652E0A003F53706563F5
:1018A0006966696564206E6F7A7A6C652073697AFF
:1018B00065206E6F7420706C61757369626C652E43
:1018C0000A003F52657472616374696F6E204D75D2
:1018D0006C7469706C696572206D757374206265D3
:1018E000207370656369666965642E0A003F5370F2
:1018F00065636966696564205265747261637469C1
:101900006F6E204D756C7469706C696572206E6FB6
:101910007420706C61757369626C652E0A003F53A8
:101920007065636966696564206C617965722068B9
:101930006569676874206E6F7420706C6175736977
:10194000626C652E0A0043292E0A003F53706563BE
:101950006966696564206265642074656D7065728E
:101960006174757265206E6F7420706C6175736937
:10197000626C65202834302D004732362073746144
:101980007274696E672E2E2E0A004F46460A004674
:101990006164652048656967687420004265642059
:1019A0004C6576656C696E6720004661696C65649C
:1019B00020746F20656E61626C6520426564204C06
:1019C0006576656C696E670A00496E76616C69645C
:1019D000206D6573682E0A0050726F62696E672011
:1019E000506F696E740025532025692F2569002EDC
:1019F0000A002F0050726F62696E67206D65736810
:101A000020706F696E742000202844525952554E40
:101A10002900473239204175746F20426564204C9B
:101A20006576656C696E67003F20284C2C522C4609
:101A30002C4229206F7574206F6620626F756E646A
:101A4000732E0A003F2856296572626F7365206CF9
:101A50006576656C20696D706C61757369626C6523
:101A60002028302D34292E0A00426164205A207625
:101A7000616C75650A004E6F2062696C696E656104
:101A80007220677269640A0020580020204D617836
:101A90003A2000200020204D696E3A2000536F66E6
:101AA0007420656E6473746F70733A20004D363025
:101AB000303A20546F6F20436F6C6400486F746538
:101AC0006E6420746F6F20636F6C640A0020496E2F
:101AD00076616C6964206578747275646572200043
:101AE00047322F47332062616420706172616D65F7
:101AF000746572730A00536C6565702E2E2E005A41
:101B00002050726F62652050617374204265640AD0
:101B1000005A2050726F62652050617374204265D4
:101B20006400486F6D652058592066697273740AA5
:101B300000486F6D65205859204669727374002003
:101B40005A3A200020593A200042656420583A2031
:101B5000004D65736820706F696E742063616E6EEE
:101B60006F74206265207265736F6C7665640A001D
:101B7000436C69636B20746F20526573756D652EBD
:101B80002E2E004E6F204D6F76652E00456E642020
:101B900066696C65206C6973740A00426567696EDA
:101BA0002066696C65206C6973740A00286E6F206A
:101BB00066696C65290043757272656E742066698A
:101BC0006C653A20005344207072696E74696E67C8
:101BD000206279746520004E6F7420534420707227
:101BE000696E74696E670A002E0A0044656C65743C
:101BF000696F6E206661696C65642C2046696C654E
:101C00003A200046696C652064656C657465643AC9
:101C1000002569730025696D2025697300256968B1
:101C20002025696D20256973002569642025696870
:101C30002025696D2025697300256979202569644F
:101C4000202569682025696D202569730050726917
:101C50006E742074696D653A2000496E76616C6916
:101C6000642050696E204D6F64650A00436F6F6C8D
:101C7000696E672E2E2E0048656174696E672E2E80
:101C80002E0045202553006F6B006F6666003713EA
:101C900032132B132413161344454255473A004D73
:101CA00031313320530042656420436F6F6C696E9D
:101CB000672E2E2E004265642048656174696E6748
:101CC0002E2E2E0043522D3130205632204F4646C4
:101CD0002E004348414D4245525F54454D504552B8
:101CE0004154555245004D4F54494F4E5F4D4F445E
:101CF000455300544845524D414C5F50524F544556
:101D00004354494F4E004155544F5245504F525441
:101D10005F53445F5354415455530050524F4D50FC
:101D2000545F535550504F525400454D455247450E
:101D30004E43595F50415253455200434153455F12
:101D40004C494748545F4252494748544E455353C3
:101D500000544F47474C455F4C4947485453005344
:101D60004F4654574152455F504F574552004255D8
:101D7000494C445F50455243454E54004C455645EE
:101D80004C494E475F44415441005A5F50524F42C4
:101D900045004155544F4C4556454C005052494E14
:101DA000545F4A4F420050524F47524553530041EF
:101DB00055544F5245504F52545F54454D50005664
:101DC0004F4C554D455452494300454550524F4D97
:101DD0000042494E4152595F46494C455F54524179
:101DE0004E534645520053455249414C5F584F4E61
:101DF0005F584F4646004649524D574152455F4E47
:101E0000414D453A4D61726C696E20322E302E354F
:101E10002E3320284769744875622920534F555244
:101E200043455F434F44455F55524C3A6874747064
:101E3000733A2F2F6769746875622E636F6D2F4D2B
:101E400061726C696E4669726D776172652F4D6162
:101E5000726C696E2050524F544F434F4C5F564541
:101E60005253494F4E3A312E30204D414348494E4E
:101E7000455F545950453A43522D31302056322057
:101E800045585452554445525F434F554E543A318C
:101E900020555549443A63656465326132662D3494
:101EA0003161322D343734382D396231322D63357A
:101EB000356336326633363766660A002F2F2000C8
:101EC0004D31343520533C696E6465783E206F7522
:101ED00074206F662072616E67652028302D31296D
:101EE0000A00205200416363656C65726174696F1A
:101EF0006E3A2050003F4A206F7574206F66207242
:101F0000616E67652028302E303120746F20302EAE
:101F100033290A0046523A0020466C6F773A200077
:101F200050726F7465637465642050696E0A003A7C
:101F3000200020536572766F2000206F7574206F2B
:101F4000662072616E67650A00536572766F2000C5
:101F500020643A0020693A0020703A00496E7661A8
:101F60006C69642065787472756465720A006469CE
:101F70007300656E0043290A0061626C6564202865
:101F80006D696E2074656D702000436F6C64206510
:101F9000787472756465732061726520004F4646DF
:101FA000004F4E0046696C616D656E742072756EEF
:101FB0006F757420004D65736820706F696E7420B2
:101FC00063616E6E6F74206265207265736F6C76EC
:101FD00065640A004D34323120696E636F72726538
:101FE000637420706172616D6574657220757361D0
:101FF00067650A004F666673657473204170706C84
:10200000696564004572723A20546F6F2066617290
:102010002100546F6F206661722066726F6D2072AE
:1020200065666572656E636520706F696E740A001F
:10203000454550524F4D204F4B0A002E0A00202894
:10204000302D313029002076616C7565206F7574F4
:10205000206F662072616E676500416476616E6311
:1020600065204B3D00446F6E65207072696E746927
:102070006E672066696C650A004D3737004D333155
:10208000002568753A25303268750025303268754C
:102090003A253032687500202020202020200020A2
:1020A000202020001FE020102010201010201020E1
:1020B0002010201030300840048003001FE03FF063
:1020C0003FF03FF01FE01FE03FF03FF03FF00FC058
:1020D000078003003FFFF038007030FC3020FC1018
:1020E0002078102030102C00D02E31D02F7BD02F14
:1020F0007BD02E31D02C00D020301020781020FC46
:102100001030FC303800703FFFF03FFFF0380070B7
:102110003186302387102787902F87D02F03D02038
:1021200030102078102078102030102F03D02F8707
:10213000D02787902387103186303800703FFFF01A
:102140001FFFF81FFFF804104002082002082004B7
:102150001040082080104100104100082080041029
:10216000400000001FFFF81FFFF84D656469612003
:1021700052656D6F766564004D6564696120496ED6
:10218000736572746564005072696E742041626F89
:1021900072746564004D323520500A4D323400505F
:1021A00061757365205072696E740000009B430076
:1021B000009B430000CD4300000000000000000031
:1021C000000000290A002062797465733B20637265
:1021D00063200053657474696E67732053746F7263
:1021E0006564202800454550524F4D20646174615C
:1021F00073697A65206572726F722E0A00290A006F
:102200002062797465733B206372632000207374CD
:102210006F7265642073657474696E67732072658C
:10222000747269657665642028004572723A2045AB
:102230004550524F4D2043524300202863616C6348
:10224000756C6174656429210A0020213D200045D8
:102250004550524F4D20435243206D69736D617458
:102260006368202D202873746F72656429200045EF
:1022700072723A20454550524F4D20496E64657840
:10228000002053697A653A2000496E6465783A20E7
:10229000004572723A20454550524F4D20566572A6
:1022A00073696F6E00204D61726C696E3D563736F2
:1022B000290A00454550524F4D2076657273696F6B
:1022C0006E206D69736D61746368202845455052B6
:1022D0004F4D3D0048617264636F646564204465DE
:1022E0006661756C742053657474696E6773204CF5
:1022F0006F616465640A0000401C4500401C450095
:1023000000C8420000C8410000A0420000A04200F6
:1023100000C843AEC7C342F4010000F401000064EA
:10232000000000881300003B20003A0A0020204DE6
:10233000363033200020204D34313220530046699E
:102340006C616D656E742072756E6F757420736547
:102350006E736F723A002055004C0046696C616DD7
:10236000656E74206C6F61642F756E6C6F61642094
:102370006C656E677468733A0020204D39303020E8
:102380004B004C696E65617220416476616E6365D5
:102390003A0020204D3835312058005A2D50726FA8
:1023A0006265204F66667365740020440020490012
:1023B00020204D3330312050005049442073657443
:1023C00074696E67733A002046002042002048007E
:1023D00020204D3134352053004D617465726961A0
:1023E0006C2068656174757020706172616D6574D0
:1023F0006572733A00204A00202047323920572066
:10240000490020204D3432302053004175746F2034
:10241000426564204C6576656C696E673A002020E1
:102420004D323036205800486F6D65206F666673F8
:1024300065743A00204A0020530020204D32303588
:10244000204200416476616E6365643A20423C6DCF
:10245000696E5F7365676D656E745F74696D655FE6
:1024600075733E20533C6D696E5F6665656472618D
:1024700074653E20543C6D696E5F74726176656C64
:102480005F66656564726174653E204A3C6A756E7C
:10249000635F6465763E0020540020520020204D8A
:1024A000323034205000416363656C657261746939
:1024B0006F6E2028756E6974732F7332293A20501D
:1024C0003C7072696E745F616363656C3E20523C60
:1024D000726574726163745F616363656C3E2054FE
:1024E0003C74726176656C5F616363656C3E00206D
:1024F000204D3230312058004D6178696D756D2066
:10250000416363656C65726174696F6E2028756ED6
:102510006974732F7332293A0020204D32303320F2
:1025200058004D6178696D756D20666565647261EE
:102530007465732028756E6974732F73293A00537C
:10254000746570732070657220756E69743A00202E
:10255000204D3230302044300A0020204D323030BF
:102560002044002044697361626C65640A00466916
:102570006C616D656E742073657474696E67733A0F
:102580000020204D3134392043203B20556E6974A2
:102590007320696E2043656C736975730A00202887
:1025A0006D6D29002020473231202020203B20550E
:1025B0006E69747320696E206D6D00486F6D696E71
:1025C00067204661696C6564006F70656E005452E7
:1025D00049474745524544003A200066696C616DA1
:1025E000656E74007A5F6D696E00795F6D696E006B
:1025F000785F6D696E005265706F7274696E6720E6
:10260000656E6473746F70207374617475730A00FF
:1026100020746F6F206C6F6E6720657874727573AD
:10262000696F6E2070726576656E7465640A00204D
:10263000636F6C6420657874727573696F6E207057
:10264000726576656E7465640A0000008040000063
:102650000040000000000000204200002042000076
:1026600000415761726E696E673A20486F6D696EFE
:10267000672042756D702044697669736F72203CE3
:1026800020310A000202040000A0400000A0400027
:1026900000004000009B4300009B430000CD43FF2F
:1026A000FFFF24F4D43050C38E20C2A24017828B87
:1026B0007011127A910D816CD90AA861E108C7588E
:1026C0006607615143061E4B5D05C145A7041A41CB
:1026D0001104093D9803713931034036DB0265333B
:1026E0009102D4305402802E1D02632CEE01752A13
:1026F000C501B028A001102781018F2564012B247A
:102700004B01E0223401AC211F018D200D01801FFF
:10271000FC00841EED00971DDF00B81CD200E61BF4
:10272000C600201BBC00641AB200B219A8000A1926
:10273000A0006A189900D117910040178B00B516B8
:10274000840031167E00B31579003A157300C71462
:102750006F0058146A00EE13660088136300251397
:102760005E00C7125B006C12570015125400C111B5
:10277000510070114F0021114B00D61049008D10EF
:1027800047004610440002104200C00F4000800F76
:102790003E00420F3C00060F3B00CB0E3800930E6C
:1027A00037005C0E3500270E3400F30D3200C10DEA
:1027B0003100900D3000600D2E00320D2D00050D02
:1027C0002C00D90C2B00AE0C2900850C29005C0CC8
:1027D0002700350C27000E0C2600E80B2400C40B44
:1027E0002400A00B23007D0B23005A0B2100390B82
:1027F0002100180B2000F80A1F00D90A1E00BB0A8E
:102800001E009D0A1D00800A1D00630A1C00470A65
:102810001B002C0A1B00110A1A00F7091A00DD0917
:102820001900C4091900AB091900920917007B09A6
:102830001800630917004C09160036091600200914
:1028400016000A091500F5081500E0081400CC0868
:102850001400B8081400A4081400900813007D08A0
:1028600012006B08130058081200460812003408C2
:102870001100230811001208110001081100F007CF
:102880001000E0071000D0071000C0071000B007CC
:102890000F00A107100091070E0083070F007407B7
:1028A0000F0065070E0057070E0049070E003B0793
:1028B0000D002E070E0020070D0013070D00060760
:1028C0000D00F9060C00ED060D00E0060C00D40624
:1028D0000C00C8060C00BC060C00B0060C00A406D8
:1028E0000B0099060C008D060B0082060B00770684
:1028F0000B006C060B0061060A0057060B004C0625
:102900000A0042060A0038060A002E060A002406BB
:102910000A001A060A001006090007060A00FD054B
:102920000900F4050900EB050900E2050900D905D5
:102930000900D0050900C7050900BE050900B50555
:102940000800AD050800A50509009C0508009405D0
:1029500008008C050800840508007C050800740543
:1029600008006C050700650508005D0507005605B1
:1029700008004E0507004705070040050800380518
:102980000700310507002A050700230507001C057D
:102990000600160507000F050700080506000205DA
:1029A0000700FB040600F5040700EE040600E80437
:1029B0000600E2040700DB040600D5040600CF048D
:1029C0000600C9040600C3040600BD040600B704DF
:1029D0000600B1040500AC040600A6040600A0042D
:1029E00005009B04060095040500900406008A0477
:1029F000050085040500800406007A0405007504BE
:102A00000500700405006B04050066040500610400
:102A100005005C04050057040500520405004D0440
:102A2000050048040500430405003E0404003A0480
:102A3000050035040500300404002C0405002704BB
:102A40000400230405001E0404001A0404001604F4
:102A50000500110404000D04040009040500040429
:102A6000040000040400FC030400F8030400F40361
:102A70000400F0030400EC030400E8030400E40392
:102A80000400E0030400DC030400D8030400D403C2
:102A90000400D0030400CC030400C8030300C503F2
:102AA000030024F404D9201BC40C5C0E9804C40950
:102AB0005F0265077101F405F900FB04B3004804E7
:102AC0008700C10369005803550003034500BE0297
:102AD0003A008402310053022A0029022500040230
:102AE0002000E4011C00C8011900AF011700980183
:102AF00014008401130071011000610110005101E4
:102B00000E0043010D0036010B002B010B002001CC
:102B10000B00150109000C01090003010800FB006E
:102B20000800F3000800EB000700E4000600DE00E8
:102B30000600D8000600D2000600CC000500C70041
:102B40000500C2000500BD000400B9000400B50086
:102B50000400B1000400AD000400A9000400A500B9
:102B60000300A20003009F0004009B0003009800E4
:102B700003009500020093000300900003008D0005
:102B800002008B000300880002008600020084001F
:102B90000300810002007F0002007D0002007B0034
:102BA0000200790002007700010076000200740044
:102BB000020072000100710002006F0002006D004F
:102BC00001006C0002006A00010069000200670059
:102BD000010066000100650001006400020062005F
:102BE000010061000100600001005F0002005D0063
:102BF00001005C0001005B0001005A000100590067
:102C00000100580001005700010056000100550066
:102C10000100540001005300000053000100520065
:102C2000010051000100500001004F0001004E0062
:102C300000004E0001004D0001004C0001004B005F
:102C400000004B0001004A0001004900010048005B
:102C50000000480001004700010046000000460057
:102C60000100450000004500010044000100430050
:102C7000000043000100420000004200010041004A
:102C8000000041000100400001003F0000003F0043
:102C900001003E0000003E0001003D0000003D003C
:102CA00001003C0000003C0000003C0001003B0033
:102CB00000003B0001003A0000003A00010039002A
:102CC0000000390001003800000038000000380022
:102CD0000100370000003700010036000000360018
:102CE000000036000100350000003500000035000E
:102CF0000100340000003400000034000100330003
:102D000000003300000033000100320000003200F8
:102D100000003200010031000000310000003100ED
:102D200001003000000030000000300001002F00E2
:102D300000002F0000002F0000002F0001002E00D7
:102D400000002E0000002E0001002D0000002D00CC
:102D500000002D0000002D0001002C0000002C00C0
:102D600000002C0000002C0001002B0000002B00B4
:102D700000002B0000002B0001002A0000002A00A8
:102D800000002A0000002A0001002900000029009C
:102D9000000029000000290000002900010028008F
:102DA0000000280000002800000028000000280083
:102DB0000100270000002700000027000000270076
:102DC0000000270001002600000026000000260069
:102DD000000026000000260001002500000025005C
:102DE000000025000000250000002500000025004F
:102DF0000100240000002400000024000000240042
:102E00000000240001002300000023000000230034
:102E10000000230000002300000023000000230026
:102E20000100220000002200000022000000220019
:102E3000000022000000220001002100000021000B
:102E400000002100000021000000210000002100FE
:102E500000002100010020000000200000002000F0
:102E600000002000000020000000200000002000E2
:102E70000000200001001F0000001F0000001F00D4
:102E800000001F0000001F0000001F0000001F00C6
:102E900001001E0000001E0000001E0000001E00B9
:102EA0000000C23100001C260000F4190000D80FF9
:102EB0000000EB080000C0040000750200004001A3
:102EC000000020436F756E7420583A00426564001C
:102ED000453100626564002C2073797374656D2040
:102EE00073746F7070656421204865617465725FEA
:102EF00049443A200048656174696E6720466169FB
:102F00006C65640048656174696E67206661696C10
:102F10006564004D3131322053687574646F776E8B
:102F200000544845524D414C2052554E415741594D
:102F300000546865726D616C2052756E61776179BD
:102F4000004572723A204D415854454D50004D4154
:102F50005854454D50207472696767657265640006
:102F60004572723A204D494E54454D50004D494EE0
:102F700054454D5020747269676765726564004DF1
:102F8000383420582059205A204500202F00204254
:102F9000403A0020403A0020573A0020573A004972
:102FA0006E76616C69642065787472756465720A06
:102FB000007C3C3E5E2B3D3F2F5B5D3B2C2A225C20
:102FC000005072696E742050617573656400700101
:102FD0002C0190012701B0012201C0011D01F00167
:102FE00018011002130130020E0160020901900263
:102FF0000401C002FF000003FA004003F500800353
:10300000F000D003EB002004E6007004E100E004CF
:10301000DC004005D700C005D2004006CD00D00638
:10302000C8008007C3003008BE00F008B900C0091E
:10303000B400B00AAF00B00BAA00D00CA500000E7F
:10304000A000500F9B00C010960050129100001479
:103050008C00C0158700B0178200B0197D00D01B0E
:103060007800001E730040206E0090226900F0245A
:10307000640040275F0090295A00E02B5500102E75
:10308000500020304B0010324600E03341009035B4
:103090003C001037370070383200A0392D00B03AAC
:1030A0002800A03B2300603C1E00103D1900903D0D
:1030B0001400103E0F00703E0A00C03E0500003FA5
:1030C0000000403FFBFF803FF6FFC03FF1FF436140
:1030D0006E6E6F74206F70656E20737562646972B6
:1030E000200053442063617264206F6B0A006F708C
:1030F000656E526F6F74206661696C65640A007654
:103100006F6C756D652E696E6974206661696C659A
:10311000640A00534420696E6974206661696C0A10
:10312000004D3234004D32332025730046696C6502
:103130002073656C65637465640A002053697A6561
:103140003A200046696C65206F70656E65643A20B0
:1031500000454E4420535542524F5554494E450A5E
:10316000002220706F73002220706172656E743AC5
:103170002200535542524F5554494E452043414C2D
:103180004C207461726765743A2200747279696EBA
:103190006720746F2063616C6C207375622D6763A8
:1031A0006F64652066696C65732077697468207444
:1031B0006F6F206D616E79206C6576656C732E2063
:1031C0004D4158206C6576656C2069733A310A0070
:1031D00057726974696E6720746F2066696C653A0E
:1031E00020002E0A006F70656E206661696C656450
:1031F0002C2046696C653A2000667265736800642D
:103200006F696E67002066696C653A20004E6F77C3
:10321000200000002100240027002A002D0030009B
:10322000330001010000040107010A01000022002F
:10323000250028002B002E00310034000201000080
:10324000050108010B0100002000230026002900D1
:103250002C002F00320000010000030106010901CB
:1032600005050505070508080808020202020A0A02
:103270000808040404040101010101010101030320
:10328000030303030303040707070C0C0C0C0C0CCB
:103290000C0C0202020206060606060606060B0BC8
:1032A0000B0B0B0B0B0B0102102020080810204009
:1032B00010204080020102010804020101020408FA
:1032C0001020408080402010080402018004020188
:1032D00080402010080402010804020101020408D1
:1032E00010204080010204081020408000000A0BDA
:1032F00002090C0D0E080703040100000000000085
:1033000000000000000000000000000000000000BD
:10331000000000000000000012111000000000007A
:10332000000000000000000000000000000000009D
:10333000000002687474703A2F2F6D61726C696EB0
:1033400066772E6F726700322E302E352E330001D5
:10335000FFFFFFFFFFFFFFFFFFFFFFFFFF0FFFFF6D
:10336000FFFFFFFFFFFFFFFFFFFFFF1E000000004A
:1033700000000000000007FFFF3800000000000010
:103380000000000003FFFF700000000000000000CC
:10339000000001FFFF6000000000000000000000CE
:1033A00000FFFF6000000000000000000000007F40
:1033B000FFC000000000000000007800003FFFC0D8
:1033C0000FC0FC00000000007818001FFFC03FE1A4
:1033D000FF0000000000783C000FFFC07FF3FF807B
:1033E00000000000783C0007FFC0FFFFFFC00000A6
:1033F0000000783C0003FFC1F87F87E00000000078
:1034000078000001FFC1F03F03E0000000007800F9
:103410000000FFC1E01E01E01F0003E0783C03F064
:103420007FC1E01E01E07FC00FF8783C07FC3FC180
:10343000E01E01E1FFE01FFC783C0FFE1FC1E01E13
:1034400001E3FFF03FFE783C1FFE0FC1E01E01E3E9
:10345000F3F83F3E783C3F3F07C1E01E01E7E0FC48
:103460007C1F783C3E1F07C1E01E01E7C07C7C0F3B
:10347000783C3C0F03C1E01E01E7807C780F783C6C
:103480003C0F03C1E01E01E7803C7800783C3C0F14
:1034900003C1E01E01E7803C7800783C3C0F03C18B
:1034A000E01E01E7803C7800783C3C0F03C1E01E41
:1034B00001E7C03C7800783C3C0F03C1E01E01E30B
:1034C000E03C78007C3C3C0F03C1E01E01E3FF3F81
:1034D000F8007FBC3C0F03C1E01E01E1FF3FF80094
:1034E0003FBFFC0F03C1E01E01E0FF3FF8001FBF1C
:1034F000FC0F03C1E01E01E07F3FF8000FBFFC0F8F
:1035000003600000000000000000000000000760F1
:103510000000000000000000000000000670000035
:10352000000000000000000000000E380000000055
:1035300000000000000000001C1E00000000000051
:10354000000000000000780FFFFFFFFFFFFFFFFFFC
:10355000FFFFFFFFF001FFFFFFFFFFFFFFFFFFFF88
:10356000FFFF802020506C616E6E6572427566664A
:10357000657242797465733A200020467265652051
:103580004D656D6F72793A2000436F6D70696C659F
:10359000643A204D617920313320323032300A00D4
:1035A000204C61737420557064617465643A2032F4
:1035B0003032302D30332D3331207C20417574680A
:1035C0006F723A2028476176696E2C2043522D3164
:1035D00030205632290A00322E302E352E330A0082
:1035E0004D61726C696E0020536F6674776172650D
:1035F0002052657365740A00205761746368646FB4
:10360000672052657365740A002042726F776E20DE
:103610006F75742052657365740A0020457874656F
:10362000726E616C2052657365740A00506F776525
:103630007255700A0073746172740A006175746F58
:1036400025632E6700473237004D31303031006539
:1036500072726F722077726974696E6720746F205E
:1036600066696C650A00446F6E6520736176696EE9
:10367000672066696C652E0A004D323900456E641C
:1036800073746F70730025532025632025632025F4
:103690006320256300205A3A0020593A0020583A06
:1036A00000656E6473746F7073206869743A2000EB
:1036B0004D6F76652025736D6D00004D6F7665202A
:1036C000302E316D6D004D6F766520316D6D004D82
:1036D0006F76652031306D6D004D6F7665204178D5
:1036E000697300486F74656E6420746F6F20636F38
:1036F0006C64004578747275646572004D6F766510
:10370000205A004D6F76652059004D6F7665205820
:10371000005072696E742066726F6D204D65646929
:10372000610050726F62696E67204661696C656402
:103730000A0050726F62696E67204661696C656449
:1037400000205A3A200020593A200042656420584F
:103750003A2000486F6D6520257325732573204638
:10376000697273740043522D3130205632205265F5
:103770006164792E005072696E74696E672E2E2E08
:1037800000220A00556E6B6E6F776E20636F6D6D51
:10379000616E643A202200204500205A0020590022
:1037A000204D393220580020453A00205A3A002056
:1037B000593A00583A0020746F6F206C6F6E672082
:1037C000657874727573696F6E2070726576656E58
:1037D0007465640A0020636F6C6420657874727588
:1037E00073696F6E2070726576656E7465640A0029
:1037F0002E0A006F70656E206661696C65642C200E
:1038000046696C653A200000AC00B80011241FBE68
:10381000CFEFD1E2DEBFCDBF00E00CBF13E0A0E0F0
:10382000B2E0E2EFF1E902E00BBF02C007900D92B7
:10383000A838B107D9F726E1A8E8B3E001C01D9286
:10384000AA38B207E1F71CE1C5E0DCE100E006C000
:1038500021970109802FFE010F946348C430D107DE
:1038600080E00807A9F70F9426330D94E8480C94DC
:1038700000006091370270913802072E000C880B0F
:10388000990B0F94E13E2AE037ED43E25CE30F949D
:10389000403F2091DB053091DC054091DD055091E2
:1038A000DE050F94403F6093810270938202809303
:1038B0008302909384020895E0919309E23030F4FA
:1038C000F0E0EB5CF54F8091720480830895E09105
:1038D0009309E23030F4F0E0EB5CF54F8091720434
:1038E000808308950C94EB28CF93DF9300D01F9230
:1038F000CDB7DEB784EF91E0A0E0B0E089839A8392
:10390000AB83BC83BE016F5F7F4F8CE30E945F7807
:103910000F900F900F900F90DF91CF910895CF935C
:10392000DF9300D01F92CDB7DEB784EF91E0A0E027
:10393000B0E089839A83AB83BC83BE016F5F7F4F06
:1039400080EA0E945F780F900F900F900F90DF91A8
:10395000CF910895CF93DF9300D01F92CDB7DEB7FC
:1039600084EF91E0A0E0B0E089839A83AB83BC83CD
:10397000BE016F5F7F4F88E70E945F780F900F90C6
:103980000F900F90DF91CF910895CF93DF9300D0E8
:103990001F92CDB7DEB78EEE92E0A0E0B0E0898353
:1039A0009A83AB83BC83BE016F5F7F4F8AE00E9426
:1039B0005F780F900F900F900F90DF91CF91089547
:1039C000CF93DF9300D01F92CDB7DEB78EEE92E09B
:1039D000A0E0B0E089839A83AB83BC83BE016F5FB4
:1039E0007F4F8AE50E945F780F900F900F900F90A5
:1039F000DF91CF910895CF92DF92EF92FF9223EF64
:103A000034E045E35FE36091150A7091160A8091F6
:103A1000170A9091180A0F94403F6B017C01609146
:103A2000CB0F7091CC0F8091CD0F9091CE0F0F9452
:103A3000DF3E9B01AC01C701B6010F94403F29E76F
:103A400032E84AE550E40F94403F0F94CF4760932B
:103A50002D0A70932E0A80932F0A9093300AFF90BC
:103A6000EF90DF90CF900895FC0184910895FC01C0
:103A700080810895CF93DF93EC01CB01BA010F94BD
:103A8000E13E2AE037ED43E25DE30F943F4620E05C
:103A900030E0A9010F9463450F94AC4668837983A5
:103AA0008A839B83DF91CF910895CF93DF93EC01BD
:103AB000CB01BA010F94E13E20E030E040E251E456
:103AC0000F943F4620E030E0A9010F9463456883DE
:103AD00079838A839B83DF91CF910895CF93DF937E
:103AE000EC01CB01BA010F94E13E20E030E040E26E
:103AF00051E40F943F4620E030E0A9010F94634564
:103B0000688379838A839B83DF91CF910895CF93D4
:103B1000DF93EC01CB01BA010F94E13E2AE037EDCF
:103B200043E25DE30F943F4620E030E0A9010F94AB
:103B30006345688379838A839B83DF91CF9108955E
:103B4000CF93DF93EC01CB01BA010F94E13E20E06B
:103B500030E0A9010F946345688379838A839B834E
:103B6000DF91CF910895CF93DF93EC01CB01BA01A0
:103B70000F94E13E20E030E0A9010F946345688393
:103B800079838A839B83DF91CF910895CF93DF93CD
:103B9000EC01CB01BA010F94E13E20E030E04AE7AE
:103BA00054E40F943F4620E030E0A9010F946345B0
:103BB000688379838A839B83DF91CF910895CF9324
:103BC000DF93EC01CB01BA010F94E13E20E030E03D
:103BD00048EC52E40F943F4620E030E0A9010F94F6
:103BE0006345688379838A839B83DF91CF910895AE
:103BF000CF93DF93EC01CB01BA010F94E13E20E0BB
:103C000030E0A9010F9463450F94A7467983688338
:103C1000DF91CF910895CF93DF93EC01CB01BA01EF
:103C20000F94E13E29EC38EC48EC5EE30F943F46FC
:103C300020E030E040E05FE30F9463450F94AC4632
:103C40006883DF91CF9108958F929F92AF92BF9238
:103C5000CF92DF92EF92FF92CF936B017C0120E035
:103C600030E0A9010F94DB3E87FD99C067E177EB57
:103C700081E598E3A70196010F9463456B017C01F0
:103C800020E030E048EC52E40F94403F4B015C01EF
:103C900020E030E0A901C701B6010F94DB3E20E02F
:103CA00030E040EA50E487FF04C020E030E040EA22
:103CB00050ECC501B4010F94634520E030E040E2D0
:103CC00051E40F943F460F94A7466B017C018BE2B1
:103CD000F7FE09C0F094E094D094C094C11CD11CAC
:103CE000E11CF11C8DE280938809C701B60120E137
:103CF00037E240E050E00F9427458AE0882E912C6F
:103D0000A12CB12CCA01B901A50194010F9427453A
:103D1000605D60938909C701B60128EE33E040E099
:103D200050E00F942745CA01B901A50194010F94F1
:103D30002745605D60938A09C701B60124E630E03B
:103D400040E050E00F942745CA01B901A501940154
:103D50000F942745605D60938B09C701B601A501EB
:103D600094010F942745C62FCA01B901A5019401FA
:103D70000F942745605D60938C098EE280938D09D6
:103D8000C05DC0938E0988E899E0CF91FF90EF90D5
:103D9000DF90CF90BF90AF909F908F90089567E194
:103DA00077EB81E598EB66CF0F94E13E20E030E0C1
:103DB00040E251E40F943F4620E030E0A9010F9427
:103DC000634542CF8F929F92AF92BF92CF92DF9284
:103DD000EF92FF92CF936B017C0120E030E0A901CC
:103DE0000F94DB3E87FDA4C067E177EB81E598E3A4
:103DF000A70196010F9463456B017C0120E030E040
:103E0000A9010F94DB3E87FF98C0C701B601905807
:103E100020E030E048EC52E40F94403F20E030E0F6
:103E200040EA50E40F94634520E030E040E251E482
:103E30000F943F460F94A7466B017C0180E280936C
:103E4000880960E280E1C81687E2D806E104F1043F
:103E50008CF0C701B60120E137E240E050E00F945A
:103E60002745CA01B9012AE030E040E050E00F9454
:103E70002745605D6093890960E288EEC81683E09B
:103E8000D806E104F1048CF0C701B60128EE33E056
:103E900040E050E00F942745CA01B9012AE030E024
:103EA00040E050E00F942745605D60938A0960E22E
:103EB00084E6C816D104E104F1048CF0C701B60110
:103EC00024E630E040E050E00F942745CA01B901F4
:103ED0002AE030E040E050E00F942745605D6093B9
:103EE0008B098AE0882E912CA12CB12CC701B60138
:103EF000A50194010F942745C62FCA01B901A50158
:103F000094010F942745605D60938C098EE2809345
:103F10008D09C05DC0938E0988E899E0CF91FF902C
:103F2000EF90DF90CF90BF90AF909F908F900895CB
:103F300067E177EB81E598EB5BCF20E030E048EC80
:103F400052E4C701B60168CF0F94E13E20E030E0B3
:103F500040E251E40F943F4620E030E0A9010F9485
:103F6000634530CF8F929F92AF92BF92CF92DF92F4
:103F7000EF92FF92CF936B017C0120E030E0A9012A
:103F80000F94DB3E87FF9DC067E177EB81E598EBFF
:103F9000A70196010F9463456B017C0120E030E09E
:103FA0004AE754E40F94403F4B015C0120E030E0CD
:103FB00040E251ECC701B6010F94DB3E181654F4F1
:103FC00020E030E048EC52E4C701B6010F94894785
:103FD00087FD8BC020E030E0A901C701B6010F9436
:103FE000DB3E87FF73C060E070E080EA90ECA501E3
:103FF00094010F94634520E030E040E251E40F94D7
:104000003F460F94A7466B017C01F7FC64C020E19A
:1040100037E240E050E00F942745CA01B9012AE099
:1040200030E040E050E00F942745605D60938909DF
:10403000C701B60128EE33E040E050E00F94274579
:104040009AE0892E912CA12CB12CCA01B901A501AD
:1040500094010F942745605D60938A09C701B601FA
:1040600024E630E040E050E00F942745CA01B90152
:10407000A50194010F942745605D60938B098EE242
:1040800080938C09C701B601A50194010F942745BF
:10409000C62FCA01B901A50194010F942745605D9F
:1040A00060938D09C05DC0938E0989E899E0CF9136
:1040B000FF90EF90DF90CF90BF90AF909F908F9048
:1040C000089567E177EB81E598E362CF60E070E007
:1040D00080EA90E48CCFF094E094D094C094C11C1A
:1040E000D11CE11CF11C6DE2A1CF20E030E0A90160
:1040F000C701B6010F94DB3E87FF6AC060E070E045
:1041000080EA90ECA50194010F94634520E030E033
:1041100040E251E40F943F460F94A7464B015C01E7
:1041200020E030E0A901C701B6010F94894787FD5F
:104130000BC020E030E040E251E4C701B6010F942B
:10414000DB3E60E287FD13C0B7FC47C0C501B40188
:1041500028EE33E040E050E00F942745CA01B90152
:104160002AE030E040E050E00F942745605D609326
:104170008A09C501B40124E630E040E050E00F9424
:1041800027458AE0C82ED12CE12CF12CCA01B901B7
:10419000A70196010F942745605D60938B098EE21D
:1041A00080938C09C501B401A70196010F9427459E
:1041B000C62FCA01B901A70196010F942745605D7A
:1041C00060938D09C05DC0938E098AE899E06FCF36
:1041D00060E070E080EA90E495CFB094A094909471
:1041E0008094811C911CA11CB11C6DE2C0CF0F9466
:1041F000E13E20E030E048EC52E40F943F4620E0FE
:1042000030E0A9010F946345ADCE11989091020161
:1042100087FD9095917090930001119A000011987C
:104220009091020186FD9095917090930001119AF2
:10423000000011989091020185FD909591709093E6
:104240000001119A000011989091020184FD90954F
:10425000917090930001119A0000119890910201C1
:1042600083FD9095917090930001119A0000119830
:104270009091020182FD9095917090930001119AA6
:10428000000011989091020181FD9095917090939A
:104290000001119A000011988091020181708093B1
:1042A0000001119A00000895089590E080E00895BB
:1042B000CF93DF93CDB7DEB720E2488559856F8174
:1042C0008E810F94D918DF91CF9108950F94E13E1C
:1042D00020E030E0A9010F9463450F94A746CB017D
:1042E0000C9473E2CF92DF92EF92FF926B017C010C
:1042F00020E030E0A9010F94DB3E87FD26C067E196
:1043000077EB81E598E3A70196010F9463456B0174
:104310007C0120E030E0A9010F94DB3E20E030E09A
:1043200040E05FE387FF04C020E030E040E05FEB67
:10433000C701B6010F9463450F94A746CB01FF90C8
:10434000EF90DF90CF900C9473E267E177EB81E51B
:1043500098EBD9CF0F94E13E20E030E0A9010F9413
:104360006345C0CF0F94E13E29EC38EC48EC5EE3A6
:104370000F943F4620E030E040E05FE30F94634558
:104380000F94AC46862F0C94A8E20D94631F0D94F5
:10439000631F66E075E383E00D94312F68EA76E3EE
:1043A00082E00D94312F6CEA76E381E00D94312F99
:1043B00060EB76E380E00D94312FCF92DF92EF92A5
:1043C000FF92CF93DF9300D01F92CDB7DEB76B0182
:1043D0007C0120E030E0A9010F94DB3E87FD1BC08B
:1043E00067E177EB81E598E3A70196010F946345B8
:1043F00069837A838B839C83CE0101960F94701915
:104400000F900F900F900F90DF91CF91FF90EF9052
:10441000DF90CF90089567E177EB81E598EBE4CFEB
:104420000F94E13E20E030E04AE754E40F943F4629
:1044300020E030E0A9010F946345BFCFCF92DF9217
:10444000EF92FF92CF93C82F0F94571F6B017C01FF
:1044500024EA30E74DE75FE360916E0470916F04EA
:1044600080917004909171040F94DB3E87FD18C019
:104470008AEF90E0A0E0B0E08C0D9D1DAE1DBF1D49
:104480008093710590937205A0937305B0937405A2
:10449000C0931A02CF91FF90EF90DF90CF900895D4
:1044A00080E090E0DC01E8CF8091E7148823D1F030
:1044B00081508093E714E7ECF2E1882351F08150BA
:1044C000990B2BE1289FF001299FF00D1124E75251
:1044D000FC4E8BE1ACEAB2E101900D928A95E1F7D6
:1044E0000F94F9242091E714211105C08091F11453
:1044F00080628093F11481E090E0A0E0B0E02111AF
:1045000003C080E090E0DC01809377099093780904
:10451000A0937909B0937A0910926C0981E0809395
:10452000870983E0809387020895809155139091C5
:104530005613891B8F7011F40C94AB7681E00895AB
:1045400063E972E084E690E00E940CE76AEB72E0B7
:1045500084E690E00C940CE78111F2CF68EB71E0F7
:1045600084E190E00C940CE70E94F7DCF5CF0E9408
:10457000B4FEF2CF9091E30581E089270C94B174E9
:104580006091720470917304809174049091750429
:1045900041E00C94397580E090E0A0E8B0E48093AD
:1045A000790290937A02A0937B02B0937C0285E516
:1045B00093E00E9498D5809167048130C9F1D4F4CA
:1045C000882309F18AE992E00E9498D51092790235
:1045D00010927A0210927B0210927C0285E593E0A1
:1045E0000E9498D5809167048F5F84309CF58093FA
:1045F00067040895823049F1833021F780E090E02C
:10460000A0EFB1E419C080E090E0A0EFB1E48093A6
:10461000710290937202A0937302B093740280931C
:10462000750290937602A0937702B0937802CACF76
:1046300080E090E0ACE8B3E4809371029093720262
:10464000A0937302B0937402BDCF80E090E0ACE819
:10465000B3E4E5CF109267040895CF930E94C9DBBD
:104660000E94F7DCC82F882319F080E00E94C9F56A
:104670008C2FCF9171CF0C94FCC10C94FCC10C9485
:10468000FCC10C94FCC10C947EC10C947EC10C94B2
:104690007EC10C947EC1CF93DF9300D01F92CDB723
:1046A000DEB70F94AC460F94DF3E69837A838B8329
:1046B0009C83CE0101960E9477E10F900F900F909E
:1046C0000F90DF91CF9108950F94E13E2AE037EDEE
:1046D00043E25DE30F943F4620E030E0A9010F94F0
:1046E0006345D9CFCF92DF92EF92FF92CF93DF93C2
:1046F00000D01F92CDB7DEB76B017C0120E030E027
:10470000A9010F94DB3E87FD1BC067E177EB81E5D4
:1047100098E3A70196010F94634569837A838B839D
:104720009C83CE0101960E9477E10F900F900F902D
:104730000F90DF91CF91FF90EF90DF90CF90089591
:1047400067E177EB81E598EBE4CF0F94E13E2AE057
:1047500037ED43E25DE30F943F4620E030E0A901EE
:104760000F946345BFCF0F94E13E20E030E0A901F4
:104770000F946345B7CFAF92BF92CF92DF92EF9283
:10478000FF920F931F93CF93DF936B01E9014A30A0
:1047900009F4B6C0453109F06BC0DB011296ED910A
:1047A000FC91F280C681D781809102018095827050
:1047B0008093000188E28A950000E9F7BF2CB2944B
:1047C00020EFB22230E1A32EAF0C48E2E42E88EFB6
:1047D0001CDD8E2D8A950000E9F7BFE1BF1508F4B6
:1047E0007EC08F2D8077806810DD8B2D0EDD8E2DA5
:1047F0008A950000E9F780E808DD80E006DD8E2D6F
:104800008A950000E9F78AEF00DD8E2D8A95000079
:10481000E9F78E01005F1F4F8881807FF6DC899168
:104820008295807FF2DCC017D107B1F78E2D8A9573
:104830000000E9F7F394E0E1BE0EFA10C8CF8091D2
:104840000201827080930001D6011296CD91DC9115
:10485000CE010F9443208111E1C1DF91CF911F91CF
:104860000F91FF90EF90DF90CF90BF90AF900895A1
:10487000FB0102811381423309F48BC108F48FC11B
:10488000463409F47CC1473409F47FC14B3329F520
:1048900089812B81D80112966C91129713964C91B5
:1048A000213009F4D2C1233009F09CC138EF380F10
:1048B000582F91E0431708F490E041E0531708F0B7
:1048C00040E031E0561708F430E0592F542B3523DF
:1048D00009F0B0C1942309F0ADC181E0BECF80EEF4
:1048E0008F0D8068807F91DC8F2D8295807F8DDC9D
:1048F0008E2D8A950000E9F780E887DC80E87ECF7E
:104900008091010182608093010180910201827097
:104910008093000180910101816080930101809169
:104920000201817080930001099A119A809102011D
:10493000809582708093000188E28A950000E9F7F3
:1049400088E790E0CEE9DFE0FE013197F1F70197CB
:10495000D9F788EF5ADC18E2812F8A950000E9F731
:1049600080E253DC80E051DC812F8A950000E9F77A
:1049700080E04BDC80E849DC812F8A950000E9F774
:1049800080E043DC80E141DC812F8A950000E9F77B
:10499000CE010197F1F7CE010197F1F7CE01019712
:1049A000F1F7CE010197F1F7CE010197F1F7CE01B2
:1049B0000197F1F7CE010197F1F7CE010197F1F7D9
:1049C000CE010197F1F7CE010197F1F7CE010197E2
:1049D000F1F7CE010197F1F7CE010197F1F7CE0182
:1049E0000197F1F72197F1F780E20FDC80E40DDC0D
:1049F000812F8A950000E9F780E207DC80E605DC7C
:104A00001A950000E9F710E0D0E0C8E28D2F80771A
:104A10008068FBDB812FF9DB8C2F8A950000E9F79A
:104A200080E8F3DB80E0F1DB8C2F8A950000E9F76A
:104A30008AEFEBDB8C2F8A950000E9F790E2119862
:104A400080910201817080930001119A00001198F9
:104A500080910201817080930001119A00001198E9
:104A600080910201817080930001119A00001198D9
:104A700080910201817080930001119A00001198C9
:104A800080910201817080930001119A00001198B9
:104A900080910201817080930001119A00001198A9
:104AA00080910201817080930001119A0000119899
:104AB00080910201817080930001119A0000119889
:104AC00080910201817080930001119A0000119879
:104AD00080910201817080930001119A0000119869
:104AE00080910201817080930001119A0000119859
:104AF00080910201817080930001119A0000119849
:104B000080910201817080930001119A0000119838
:104B100080910201817080930001119A0000119828
:104B200080910201817080930001119A0000119818
:104B300080910201817080930001119A00008C2FF6
:104B40008A950000E9F7915009F079CF88EF5DDB95
:104B50008C2F8A950000E9F7DF5F105FD03209F0F3
:104B600055CF80E052DB80EC50DBCA950000E9F7BE
:104B70008091020182708093000181E06ECED801A5
:104B800015968C91888381E068CEF80181818883B5
:104B9000FACFB901C8010F942D2081E05ECE4431D7
:104BA00071F0473109F099CE1882F801828189832A
:104BB000858181508A8383818B8381E04ECED801A9
:104BC00015964C91159750E0440F551F70E060E02A
:104BD00016968D919C910F948948C8010F94592085
:104BE00081E03BCE481708F478CE861708F475CEDE
:104BF000FA80E12CD12C243070F41DC0BE01C80114
:104C00000F942D20898198819D0D98838E0D898325
:104C1000FF0C09F462CEF7FEF6CFF0CF4D8150E0E5
:104C2000440F551F70E060E08E819F810F9489488A
:104C300081E013CEFA8030E0F901EA56FD4FD080D2
:104C40002E563D4FF901E080E6CF58E0580F382F3F
:104C500030CEDF92EF92FF920F931F93CF93DF93AB
:104C6000EC01D62E1CAD0BAD7C0184E0E80EF11CEE
:104C7000E98DFA8DC7011995412F480F2D2D602F11
:104C8000C7010F9497239BAD890F8BAF81E090E014
:104C9000DF91CF911F910F91FF90EF90DF900895DA
:104CA0008F929F92AF92BF92CF92DF92EF92FF923C
:104CB0000F931F93CF93DF93EC018B017A018A85C9
:104CC0009B858617970731F0888199810F9471220F
:104CD0001B870A8788859985019641F50C81DA80C2
:104CE0008E81D80EA880B980D5015596ED91FC91A2
:104CF000C5011995080F10E0F70121917F012111DD
:104D00004FC08E819F81810F911D9F838E8390E084
:104D100080E0DF91CF911F910F91FF90EF90DF9096
:104D2000CF90BF90AF909F908F900895CE80DF80FE
:104D3000F701008110E0002321F1A880B980602FE5
:104D4000C5010F94C922D50151961C9111954701B7
:104D5000BFEF8B1A9B0AF40181914F01882351F018
:104D6000D50150969C91190F082F682FC5010F94FB
:104D7000C922F1CF003281F0F50183899189890F31
:104D8000180FC10ED11C288539852C153D0508F05A
:104D9000A5CF81E090E0BDCFD50150968C91F0CFAA
:104DA000402F6D2DC5010F949723D80E180FA4CF57
:104DB000EF92FF920F931F93CF93DF93CDB7DEB7A0
:104DC0002C970FB6F894DEBF0FBECDBF1091D01355
:104DD0000091D1132091760521111BC04BE655E0BF
:104DE000602F812F0F94012490E080E0180F109322
:104DF000D0130093D11399272C960FB6F894DEBFE9
:104E00000FBECDBFDF91CF911F910F91FF90EF901B
:104E10000895E0909D13F0909E1329E933E13A83C1
:104E20002983212F30E03C832B83202F30E03E83E9
:104E30002D8318861F827A8769871C861B869E01B0
:104E40002F5F3F4F44E35DE1BC01C7010F9489012F
:104E5000B70189E993E10F9471228F819885C6CFBC
:104E600063E00D942716282F10927309809177091B
:104E700090917809A0917909B0917A09B7FF08C09B
:104E800010927709109278091092790910927A0994
:104E900080917805882331F08091770980936B09A0
:104EA00010928709809166091816FCF4082E000CF0
:104EB000990B821B910920916B09022E000C330B78
:104EC0002817390794F097FF02C090E080E08093A4
:104ED0006B09092E000CAA0BBB0B809377099093EA
:104EE0007809A0937909B0937A0980916B096623B8
:104EF000A9F090916C09891714F480936C092091A2
:104F00006C09022E000C330B2C5F3F4F482F082EEC
:104F1000000C550B241735071CF4845080936C0942
:104F200008958F929F92AF92BF92EF92FF920F934C
:104F30001F93CF93DF93EC018B01E42EF22E80912F
:104F40009313909194138C179D07C9F121E6C034F7
:104F5000D20709F03FC0835D9A4E71F40F94571F3A
:104F60006E517B4F8F4F9F4F609362047093630429
:104F70008093640490936504D0939413C093931327
:104F800030E020E0009377091093780920937909A5
:104F900030937A09E0926C09F0926609C35DDA4EAB
:104FA00021F4109277051092610482E080938702C9
:104FB00081E0809387091092790510926604DF9151
:104FC000CF911F910F91FF90EF90BF90AF909F9066
:104FD0008F9008952AEEC33DD20771F68054914612
:104FE00019F0C3EDDAEEC8CF0F94571F809062041A
:104FF00090906304A0906404B090650468197909E6
:105000008A099B0997FFEDCFC091A8098EDA882302
:1050100041F3C770C73029F7C4EBD6E3ADCF21E029
:105020002093770560936E0470936F0480937004EF
:105030009093710420E040E070E060E080916D09A1
:1050400090916E096ECF6DEC7CEC8CEC9CE3E7CF1D
:105050006DEC7CEC8CEC9DE3E2CF60E070E080E8EE
:105060009FE3DDCF60E070E080E291E4D8CF81E0A3
:10507000809377058091A8098770873041F010925E
:10508000050A8AE09DE09093D6078093D50780912A
:10509000E3058093680480E00E94B17420E040E062
:1050A00070E060E08BEF92E33CCFE0916104E6308A
:1050B00010F581E08E0F8093610440917709509143
:1050C00078096091790970917A0990916C098091C1
:1050D000660928E0E29FF0011124EF5CFB4F20916C
:1050E00093133091941331832083428353836483D9
:1050F000758396838783089520E040E070E060E048
:1051000083ED9AEE0ECF0E94D6760E940EBBF4CFAE
:10511000CF9390E0FC01ED59F64FC081880F991FA5
:10512000FC01E15AF64F8081918197FF0E941A712C
:10513000C093350ACF91E0CF85EB99E00F94CC274F
:10514000DBDF0D94B21561116093000240932F04D0
:105150008C3008F039C0E82F880FFF0B8827EC54FB
:10516000F74D8F4F0D946348E528C028CA28E828DA
:10517000CD28D028D328DF28D628E428D928DC2831
:1051800086E794E321E02093770520E040E070E09B
:1051900060E0C7CE8CE794E3F5CF8FE794E3F2CFDE
:1051A00082E894E3EFCF85E894E3ECCF88E894E3DA
:1051B000E9CF8BE894E3E6CF8EE894E3E3CF109257
:1051C0002E0487E099E3DECF97CF83E794E3DACF2D
:1051D00089E794E3D7CFE0916104EE2381F0E150B9
:1051E000E093610488E0E89FF0011124EF5CFB4F3D
:1051F00062817381278146818081918192CE7CCFAB
:105200008F929F92AF92BF92CF92DF92EF92FF92D6
:105210000F931F93CF93DF9361E081E024DEC09171
:105220006C0985E0982E9C0E9DE1E92E9DE0F92EFB
:10523000D3E0DC1B2DE2C22E2DE0D22E12E01C1B8F
:1052400031E8A32E3DE0B32E01E00C1B8C2E81949F
:10525000C11132C080916B098823B1F0809187021F
:10526000882359F081E090916B09911180E024E04E
:105270004FE55DE0682D0F94D918CF5FC911E8CFD5
:1052800084E0809366090BC08091650910926509DE
:10529000882321F3A0DF809187098823F9F2DF9129
:1052A000CF911F910F91FF90EF90DF90CF90BF9023
:1052B000AF909F908F900895C13009F580916B0950
:1052C000813079F0809187028823B9F21F92BF92D2
:1052D000AF920F9381E090916B09913021F180E0C2
:1052E00022C08091650910926509882359F380E0F6
:1052F0000F94D81C80918709882321F3D0CFC23026
:10530000B1F580916B098230B9F0809187028823D2
:1053100009F4B3CF1F92DF92CF921F9381E0909157
:105320006B099230E1F68F930E9458210F900F90F5
:105330000F900F900F90A1CF809165091092650991
:10534000882319F380E00F94021D80918709882338
:10535000E1F2A5CF8091650910926509882371F06B
:1053600080E0D6DE80918709882341F098CFC33052
:1053700009F083CF80916B09833061F380918702BC
:10538000882309F47ACF1F92FF92EF92DF9381E096
:1053900090916B09933009F0A2CFC5CF8F929F9265
:1053A000AF92BF92CF92DF92EF92FF920F931F9333
:1053B000CF93DF9361E081E056DDC0916C0985E019
:1053C000982E9C0E9EE4E92E9DE0F92ED3E0DC1B86
:1053D0002DE3C22E2DE0D22E12E01C1B34E7A32EAB
:1053E0003DE0B32E01E00C1B8C2E8194C11132C024
:1053F00080916B098823B1F080918702882359F04E
:1054000081E090916B09911180E024E04FE55DE02F
:10541000682D0F94D918CF5FC911E8CF84E080932D
:1054200066090BC08091650910926509882321F3F4
:10543000D2DE809187098823F9F2DF91CF911F9105
:105440000F91FF90EF90DF90CF90BF90AF909F9023
:105450008F900895C13009F580916B09813079F002
:10546000809187028823B9F21F92BF92AF920F9367
:1054700081E090916B09913021F180E022C0809110
:10548000650910926509882359F381E00F94D81CAF
:1054900080918709882321F3D0CFC230B1F5809164
:1054A0006B098230B9F080918702882309F4B3CF69
:1054B0001F92DF92CF921F9381E090916B099230FF
:1054C000E1F68F930E9458210F900F900F900F904C
:1054D0000F90A1CF8091650910926509882319F377
:1054E00081E00F94021D809187098823E1F2A5CF06
:1054F0008091650910926509882371F081E008DECA
:1055000080918709882341F098CFC33009F083CF79
:1055100080916B09833061F380918702882309F4BD
:105520007ACF1F92FF92EF92DF9381E090916B0907
:10553000933009F0A2CFC5CF2F923F924F925F9246
:105540006F927F928F929F92AF92BF92CF92DF9293
:10555000EF92FF920F931F93CF93DF9300D01F9290
:10556000CDB7DEB761E081E07EDC10916C09212EC1
:1055700085E0382E310E94EFC92EDD24D394E12C32
:10558000F12C05E0011B2EEE422E22E0522E612C62
:10559000712C84E0B82EB11A83E0A82EA11A82E003
:1055A000982E911A81E0882E811A11113DC08091A8
:1055B0006B098823B9F080918702882361F0622DFE
:1055C000619581E090916B09911180E024E045E6BE
:1055D00058E00F94D9181F5F1311E7CF86E080932E
:1055E00066090BC08091650910926509882319F33B
:1055F000F2DD809187098823F1F20F900F900F90D0
:105600000F90DF91CF911F910F91FF90EF90DF905E
:10561000CF90BF90AF909F908F907F906F905F9052
:105620004F903F902F900895113069F580916B094C
:105630008130A1F080918702882369F28FE89CE194
:105640009F938F9385E498E09F938F938F9281E04F
:1056500090916B09913089F180E02FC080916509AC
:1056600010926509882331F3C982DA82EB82FC82C9
:10567000BE016F5F7F4F80EA0E945F78809187094B
:105680008823C1F2BACF123009F0A7C080916B090C
:105690008230E9F080918702882309F49CCF8AEA5E
:1056A0009CE19F938F9386E398E09F938F939F92C3
:1056B00081E090916B09923079F68F930E94582186
:1056C0000F900F900F900F900F900F9084CF8091BC
:1056D0006509109265098823E9F2C982DA82EB82B2
:1056E000FC82BE016F5F7F4F88E70E945F788091E8
:1056F0008709882379F281CF80916B098330A9F0E3
:1057000080918702882309F466CF85EC9CE19F9302
:105710008F938DE198E09F938F93AF9281E090916A
:105720006B09933009F098CFC8CF8091650910922A
:105730006509882329F349825A826B827C82BE01E3
:105740006F5F7F4F8AE00E945F788091870988238E
:10575000B9F253CF80916B098430A9F08091870210
:10576000882309F438CF80EE9CE19F938F9383E1E7
:1057700098E09F938F93BF9281E090916B09943052
:1057800009F06ACF9ACF8091650910926509882344
:1057900029F349825A826B827C82BE016F5F7F4F00
:1057A0008AE50E945F78809187098823B9F225CF26
:1057B00080916509109265098823E1F0C982DA8237
:1057C000EB82FC82BE016F5F7F4F8CE30E945F78AB
:1057D00080918709882371F010CF133009F48CCFA2
:1057E000143009F4B7CF153009F0F5CE80916B096C
:1057F0008530F1F280918702882309F4ECCE84E7AA
:105800009CE19F938F9389E298E09F938F930F93EE
:1058100081E090916B09953009F01ECF4ECF8091B9
:1058200068040E94B17410927705D5CCAF92BF92F4
:10583000CF92DF92EF92FF920F931F93CF93DF935C
:10584000EC015B018A01FB01199587FD16C0C82E8A
:10585000D12CF12CE12C2196F801C082D182E28278
:10586000F382CE01DF91CF911F910F91FF90EF90C6
:10587000DF90CF90BF90AF900895982F907E903C8E
:10588000A9F48F7190E0B0E0A0E06C017D0126E00A
:10589000CC0CDD1CEE1CFF1C2A95D1F7CE01019625
:1058A000F50119958F73C82A2296D6CF982F907F2D
:1058B000903E11F58F7090E0B0E0A0E06C017D01AA
:1058C00086E0CC0CDD1CEE1CFF1C8A95D1F7CE01C6
:1058D0000196F50119958F73C82A96E0CC0CDD1C52
:1058E000EE1CFF1C9A95D1F7CE010296F501199591
:1058F0008F73C82A2396B0CF982F987F903F79F561
:10590000877090E0B0E0A0E06C017D01F6E0CC0C87
:10591000DD1CEE1CFF1CFA95D1F7CE010196F501B6
:1059200019958F73C82AA6E0CC0CDD1CEE1CFF1C59
:10593000AA95D1F7CE010296F50119958F73C82A61
:10594000B6E0CC0CDD1CEE1CFF1CBA95D1F7CE01E5
:105950000396F50119958F73C82A24967DCF982F49
:105960009C7F983FE1F5837090E0B0E0A0E06C018F
:105970007D0156E0CC0CDD1CEE1CFF1C5A95D1F7C6
:10598000CE010196F50119958F73C82A66E0CC0CFB
:10599000DD1CEE1CFF1C6A95D1F7CE010296F501C5
:1059A00019958F73C82A76E0CC0CDD1CEE1CFF1C09
:1059B0007A95D1F7CE010396F50119958F73C82A10
:1059C000E6E0CC0CDD1CEE1CFF1CEA95D1F7CE0105
:1059D0000496F50119958F73C82A25963DCF982F07
:1059E0009E7F9C3F09F049C0817090E0B0E0A0E04C
:1059F0006C017D0186E0CC0CDD1CEE1CFF1C8A9541
:105A0000D1F7CE010196F50119958F73C82A96E05A
:105A1000CC0CDD1CEE1CFF1C9A95D1F7CE01029632
:105A2000F50119958F73C82A26E0CC0CDD1CEE1CFD
:105A3000FF1C2A95D1F7CE010396F50119958F73B6
:105A4000C82A36E0CC0CDD1CEE1CFF1C3A95D1F7C1
:105A5000CE010496F50119958F73C82A46E0CC0C47
:105A6000DD1CEE1CFF1C4A95D1F7CE010596F50111
:105A700019958F73C82A2696EFCE982F907C903870
:105A800041F4807C803869F42196CE01F5011995A6
:105A9000F8CF8E7F8D3F28F02196CE01F501199524
:105AA000F8CFC12CD12C7601D7CE1F93CF93DF93A3
:105AB00000D01F92CDB7DEB710E0AE014F5F5F4F51
:105AC00064E37DE1B3DE49815A816B817C81452BA2
:105AD000462B472B11F01F5FF0CF812F0F900F90B7
